{
  "contractName": "ParticipantPool",
  "abi": [
    {
      "constant": true,
      "inputs": [
        {
          "name": "",
          "type": "address"
        }
      ],
      "name": "participants",
      "outputs": [
        {
          "name": "id",
          "type": "uint256"
        },
        {
          "name": "name",
          "type": "string"
        },
        {
          "name": "attending",
          "type": "bool"
        }
      ],
      "payable": false,
      "stateMutability": "view",
      "type": "function"
    },
    {
      "constant": true,
      "inputs": [],
      "name": "participantCount",
      "outputs": [
        {
          "name": "",
          "type": "uint256"
        }
      ],
      "payable": false,
      "stateMutability": "view",
      "type": "function"
    },
    {
      "constant": true,
      "inputs": [
        {
          "name": "",
          "type": "address"
        }
      ],
      "name": "voters",
      "outputs": [
        {
          "name": "",
          "type": "bool"
        }
      ],
      "payable": false,
      "stateMutability": "view",
      "type": "function"
    },
    {
      "inputs": [],
      "payable": false,
      "stateMutability": "nonpayable",
      "type": "constructor"
    },
    {
      "constant": false,
      "inputs": [
        {
          "name": "_name",
          "type": "string"
        },
        {
          "name": "_accepted",
          "type": "bool"
        }
      ],
      "name": "addParticipant",
      "outputs": [],
      "payable": false,
      "stateMutability": "nonpayable",
      "type": "function"
    }
  ],
  "bytecode": "0x608060405234801561001057600080fd5b506100606040805190810160405280601181526020017f706572736f6e20706572736f6e73736f6e0000000000000000000000000000008152506001610065640100000000026401000000009004565b6102b1565b600061006f6101e8565b600160003373ffffffffffffffffffffffffffffffffffffffff1673ffffffffffffffffffffffffffffffffffffffff16815260200190815260200160002060009054906101000a900460ff161515156100c857600080fd5b6001600254019150606060405190810160405280838152602001858152602001841515815250905060018060003373ffffffffffffffffffffffffffffffffffffffff1673ffffffffffffffffffffffffffffffffffffffff16815260200190815260200160002060006101000a81548160ff021916908315150217905550806000803373ffffffffffffffffffffffffffffffffffffffff1673ffffffffffffffffffffffffffffffffffffffff1681526020019081526020016000206000820151816000015560208201518160010190805190602001906101ac92919061020c565b5060408201518160020160006101000a81548160ff02191690831515021790555090505060026000815480929190600101919050555050505050565b60606040519081016040528060008152602001606081526020016000151581525090565b828054600181600116156101000203166002900490600052602060002090601f016020900481019282601f1061024d57805160ff191683800117855561027b565b8280016001018555821561027b579182015b8281111561027a57825182559160200191906001019061025f565b5b509050610288919061028c565b5090565b6102ae91905b808211156102aa576000816000905550600101610292565b5090565b90565b61059d806102c06000396000f300608060405260043610610062576000357c0100000000000000000000000000000000000000000000000000000000900463ffffffff16806309e69ede146100675780630dd664d714610135578063362f04c0146101aa578063a3ec138d146101d5575b600080fd5b34801561007357600080fd5b506100a8600480360381019080803573ffffffffffffffffffffffffffffffffffffffff169060200190929190505050610230565b604051808481526020018060200183151515158152602001828103825284818151815260200191508051906020019080838360005b838110156100f85780820151818401526020810190506100dd565b50505050905090810190601f1680156101255780820380516001836020036101000a031916815260200191505b5094505050505060405180910390f35b34801561014157600080fd5b506101a8600480360381019080803590602001908201803590602001908080601f01602080910402602001604051908101604052809392919081815260200183838082843782019150505050505091929192908035151590602001909291905050506102ff565b005b3480156101b657600080fd5b506101bf610482565b6040518082815260200191505060405180910390f35b3480156101e157600080fd5b50610216600480360381019080803573ffffffffffffffffffffffffffffffffffffffff169060200190929190505050610488565b604051808215151515815260200191505060405180910390f35b6000602052806000526040600020600091509050806000015490806001018054600181600116156101000203166002900480601f0160208091040260200160405190810160405280929190818152602001828054600181600116156101000203166002900480156102e25780601f106102b7576101008083540402835291602001916102e2565b820191906000526020600020905b8154815290600101906020018083116102c557829003601f168201915b5050505050908060020160009054906101000a900460ff16905083565b60006103096104a8565b600160003373ffffffffffffffffffffffffffffffffffffffff1673ffffffffffffffffffffffffffffffffffffffff16815260200190815260200160002060009054906101000a900460ff1615151561036257600080fd5b6001600254019150606060405190810160405280838152602001858152602001841515815250905060018060003373ffffffffffffffffffffffffffffffffffffffff1673ffffffffffffffffffffffffffffffffffffffff16815260200190815260200160002060006101000a81548160ff021916908315150217905550806000803373ffffffffffffffffffffffffffffffffffffffff1673ffffffffffffffffffffffffffffffffffffffff1681526020019081526020016000206000820151816000015560208201518160010190805190602001906104469291906104cc565b5060408201518160020160006101000a81548160ff02191690831515021790555090505060026000815480929190600101919050555050505050565b60025481565b60016020528060005260406000206000915054906101000a900460ff1681565b60606040519081016040528060008152602001606081526020016000151581525090565b828054600181600116156101000203166002900490600052602060002090601f016020900481019282601f1061050d57805160ff191683800117855561053b565b8280016001018555821561053b579182015b8281111561053a57825182559160200191906001019061051f565b5b509050610548919061054c565b5090565b61056e91905b8082111561056a576000816000905550600101610552565b5090565b905600a165627a7a72305820b97365af077e53ab2f9182a2526466d71e602b7b7c9a3dc94ab99af70fdc1af20029",
  "source": "pragma solidity ^0.4.24;\n\ncontract ParticipantPool {\n  struct Participant {\n    uint id;\n    string name;\n    bool attending;\n  }\n  mapping(address => Participant) public participants;\n  mapping(address => bool) public voters;\n  uint public participantCount;\n\n  constructor() public {\n    addParticipant('person personsson', true);\n  }\n\n  function addParticipant(string _name, bool _accepted) public {\n    require(!voters[msg.sender]);\n    uint _participantId = participantCount + 1;\n\n    Participant memory participant = Participant(_participantId, _name, _accepted);\n\n    voters[msg.sender] = true;\n\n    participants[msg.sender] = participant;\n    participantCount ++;\n  }\n}\n",
  "sourcePath": "/Users/katotopark/Documents/woerk/kode/tez/contracts/ParticipantPool.sol",
  "compiler": {
    "name": "solc",
    "version": "0.4.24+commit.e67f0147.Emscripten.clang"
  },
  "schemaVersion": "2.0.1",
  "updatedAt": "2018-09-30T10:34:47.273Z"
}