{
  "contractName": "QuestionPool",
  "abi": [
    {
      "constant": true,
      "inputs": [
        {
          "name": "",
          "type": "uint256"
        }
      ],
      "name": "questions",
      "outputs": [
        {
          "name": "id",
          "type": "uint256"
        },
        {
          "name": "title",
          "type": "string"
        },
        {
          "name": "group",
          "type": "uint256"
        },
        {
          "name": "voteCount",
          "type": "uint256"
        }
      ],
      "payable": false,
      "stateMutability": "view",
      "type": "function"
    },
    {
      "constant": true,
      "inputs": [],
      "name": "questionsCount",
      "outputs": [
        {
          "name": "",
          "type": "uint256"
        }
      ],
      "payable": false,
      "stateMutability": "view",
      "type": "function"
    },
    {
      "constant": true,
      "inputs": [
        {
          "name": "",
          "type": "address"
        }
      ],
      "name": "voters",
      "outputs": [
        {
          "name": "",
          "type": "bool"
        }
      ],
      "payable": false,
      "stateMutability": "view",
      "type": "function"
    },
    {
      "inputs": [],
      "payable": false,
      "stateMutability": "nonpayable",
      "type": "constructor"
    },
    {
      "anonymous": false,
      "inputs": [
        {
          "indexed": true,
          "name": "_questionId",
          "type": "uint256"
        }
      ],
      "name": "votedEvent",
      "type": "event"
    },
    {
      "constant": false,
      "inputs": [
        {
          "name": "_title",
          "type": "string"
        },
        {
          "name": "_group",
          "type": "uint256"
        }
      ],
      "name": "addQuestion",
      "outputs": [],
      "payable": false,
      "stateMutability": "nonpayable",
      "type": "function"
    },
    {
      "constant": false,
      "inputs": [
        {
          "name": "_questionId",
          "type": "uint256"
        }
      ],
      "name": "vote",
      "outputs": [],
      "payable": false,
      "stateMutability": "nonpayable",
      "type": "function"
    }
  ],
  "bytecode": "0x608060405234801561001057600080fd5b506100606040805190810160405280600481526020017f776861740000000000000000000000000000000000000000000000000000000081525060026100b4640100000000026401000000009004565b6100af6040805190810160405280600381526020017f776879000000000000000000000000000000000000000000000000000000000081525060016100b4640100000000026401000000009004565b6101e7565b60026000815480929190600101919050555060806040519081016040528060025481526020018381526020018281526020016000815250600160006002548152602001908152602001600020600082015181600001556020820151816001019080519060200190610126929190610142565b5060408201518160020155606082015181600301559050505050565b828054600181600116156101000203166002900490600052602060002090601f016020900481019282601f1061018357805160ff19168380011785556101b1565b828001600101855582156101b1579182015b828111156101b0578251825591602001919060010190610195565b5b5090506101be91906101c2565b5090565b6101e491905b808211156101e05760008160009055506001016101c8565b5090565b90565b6105c2806101f66000396000f30060806040526004361061006d576000357c0100000000000000000000000000000000000000000000000000000000900463ffffffff1680630121b93f14610072578063129cd33e1461009f57806331b1b978146101125780637c1fb3c3146101cd578063a3ec138d146101f8575b600080fd5b34801561007e57600080fd5b5061009d60048036038101908080359060200190929190505050610253565b005b3480156100ab57600080fd5b50610110600480360381019080803590602001908201803590602001908080601f016020809104026020016040519081016040528093929190818152602001838380828437820191505050505050919291929080359060200190929190505050610375565b005b34801561011e57600080fd5b5061013d60048036038101908080359060200190929190505050610403565b6040518085815260200180602001848152602001838152602001828103825285818151815260200191508051906020019080838360005b8381101561018f578082015181840152602081019050610174565b50505050905090810190601f1680156101bc5780820380516001836020036101000a031916815260200191505b509550505050505060405180910390f35b3480156101d957600080fd5b506101e26104cb565b6040518082815260200191505060405180910390f35b34801561020457600080fd5b50610239600480360381019080803573ffffffffffffffffffffffffffffffffffffffff1690602001909291905050506104d1565b604051808215151515815260200191505060405180910390f35b6000803373ffffffffffffffffffffffffffffffffffffffff1673ffffffffffffffffffffffffffffffffffffffff16815260200190815260200160002060009054906101000a900460ff161515156102ab57600080fd5b6000811180156102bd57506002548111155b15156102c857600080fd5b60016000803373ffffffffffffffffffffffffffffffffffffffff1673ffffffffffffffffffffffffffffffffffffffff16815260200190815260200160002060006101000a81548160ff0219169083151502179055506001600082815260200190815260200160002060030160008154809291906001019190505550807ffff3c900d938d21d0990d786e819f29b8d05c1ef587b462b939609625b684b1660405160405180910390a250565b600260008154809291906001019190505550608060405190810160405280600254815260200183815260200182815260200160008152506001600060025481526020019081526020016000206000820151816000015560208201518160010190805190602001906103e79291906104f1565b5060408201518160020155606082015181600301559050505050565b6001602052806000526040600020600091509050806000015490806001018054600181600116156101000203166002900480601f0160208091040260200160405190810160405280929190818152602001828054600181600116156101000203166002900480156104b55780601f1061048a576101008083540402835291602001916104b5565b820191906000526020600020905b81548152906001019060200180831161049857829003601f168201915b5050505050908060020154908060030154905084565b60025481565b60006020528060005260406000206000915054906101000a900460ff1681565b828054600181600116156101000203166002900490600052602060002090601f016020900481019282601f1061053257805160ff1916838001178555610560565b82800160010185558215610560579182015b8281111561055f578251825591602001919060010190610544565b5b50905061056d9190610571565b5090565b61059391905b8082111561058f576000816000905550600101610577565b5090565b905600a165627a7a72305820c20cb6b33ef74e879368028bb6dec60ff9f2c6ea914fc65965627df21b35224a0029",
  "source": "pragma solidity ^0.4.24;\n\ncontract QuestionPool {\n  struct Question {\n    uint id;\n    string title;\n    uint group;\n    uint voteCount;\n  }\n\n  mapping(address => bool) public voters;\n  mapping(uint => Question) public questions;\n  uint public questionsCount;\n\n  event votedEvent(uint indexed _questionId);\n\n  constructor() public {\n    addQuestion(\"what\", 2);\n    addQuestion(\"why\", 1);\n  }\n\n  function addQuestion(string _title, uint _group) public {\n    questionsCount ++;\n    questions[questionsCount] = Question(questionsCount, _title, _group, 0);\n  }\n\n  function vote(uint _questionId) public {\n    require(!voters[msg.sender]);\n    require(_questionId > 0 && _questionId <= questionsCount);\n\n    voters[msg.sender] = true;\n    questions[_questionId].voteCount ++;\n\n    emit votedEvent(_questionId);\n  }\n\n}\n",
  "sourcePath": "/Users/katotopark/Documents/woerk/kod/tez/contracts/QuestionPool.sol",
  "compiler": {
    "name": "solc",
    "version": "0.4.24+commit.e67f0147.Emscripten.clang"
  },
  "schemaVersion": "2.0.1",
  "updatedAt": "2018-10-08T11:48:34.277Z"
}